:060000000A128A11EC2F28
:100D0E007E340C34B6349E34CC34DA34F8340E34AB
:100D1E00FE34CE3401308316031386008312031380
:100D2E0086018316031387018312031387010800BC
:100D3E007E088A007F0882009F260A128A11800090
:100D4E00840A04087D0603190034FF0A0319FE0AFB
:100D5E00A32E790878040319DD2EFD01FD0AF91B77
:100D6E00C42E01300310F80DF90DFF3E031DB92EF0
:100D7E000130FC007C08FD07B62E79087B02031DAE
:100D8E00CA2E78087A02031CD22E7808FA02790845
:100D9E00031CFB03FB0201300310F90CF80CFF3EA1
:100DAE00031DD32E0130FD02031DC42E7B08F90155
:100DBE00F9077A08F801F8070800F501F60171083D
:100DCE00700403191B2FF701F70AF11BFA2E0130DD
:100DDE000310F00DF10DFF3E031DEF2E0130F40058
:100DEE007408F707EC2E01300310F50DF60DFF3EDB
:100DFE00031DFB2E71087302031D072F700872026C
:100E0E00031C102F7008F2027108031CF303F30287
:100E1E00751401300310F10CF00CFF3E031D112F61
:100E2E000130F702031DFA2E7608F101F10775085D
:100E3E00F001F00708000A128A1191260A128A118F
:100E4E00831203130618272FB201B30100303302A9
:100E5E00FB300319320203184E2F3108AB01AB07DA
:100E6E003008AA01AA070A128A1167270A128A11E4
:100E7E00013083120313B2070318B30A0030B3070D
:100E8E0000303302FB3003193202031C342F0618D4
:100E9E005C2F272F3108AB01AB073008AA01AA0738
:100EAE000A128A1167270A128A118312031306186F
:100EBE00512F0130B0070318B10A0030B107272FA8
:100ECE006430F0000030F100831203132B08F3019D
:100EDE00F3072A08F201F2070A128A11E4260A120F
:100EEE008A11700883120313AC002C08AD000A306F
:100EFE00F8000030F9000A30F0000030F1002B0845
:100F0E00F301F3072A08F201F2070A128A11E42606
:100F1E000A128A117108FB01FB077008FA01FA0721
:100F2E000A128A11B0260A128A1178088312031344
:100F3E00AC002C08AE000A30F8000030F9002B0887
:100F4E00FB01FB072A08FA01FA070A128A11B026DA
:100F5E000A128A11780883120313AC002C08AF0012
:100F6E00871407152D08203E840083130008860081
:100F7E000710F930AC000000AC0BC22FC62F0000DA
:100F8E0083120313071407152E08203E84008313C3
:100F9E00000886008710F930AC000000AC0BD42F8F
:100FAE00D82F000083120313871407142F08203E36
:100FBE0084008313000886000711F930AC0000008E
:100FCE00AC0BE62FEA2F00000800B001B101B20110
:100FDE00B30183132A30FD000630FE008730FF0078
:100FEE00203084000A128A11A32683010A128A1164
:020FFE00222FA0
:00000001FF
